:020000040800F2
:100000000080002081460008B1170008B5170008DD
:10001000B9170008BD170008C1170008000000004C
:10002000000000000000000000000000C5170008EC
:10003000C917000800000000CD170008D1170008FC
:10004000D1460008D1460008D1460008D146000834
:10005000D1460008D1460008D1460008D146000824
:10006000D1460008D1460008D1460008D51700083F
:10007000E1170008D1460008D1460008D146000823
:10008000D146000800000000D1460008D146000813
:10009000D1460008ED170008D1460008D1460008F7
:1000A000D1460008F9170008D1460008D1460008DB
:1000B000D1460008D1460008D1460008D1460008C4
:1000C000D1460008D1460008D1460008D1460008B4
:1000D000D1460008D1460008D1460008D1460008A4
:1000E000D1460008D1460008D1460008D146000894
:1000F000D1460008D1460008D146000800000000A3
:1001000000000000D146000800000000D1460008B1
:10011000D146000800000000D1460008051800087C
:10012000D1460008D1460008D1460008D146000853
:10013000D14600080000000000000000D146000881
:10014000D1460008D1460008000000000000000071
:10015000000000000000000000000000000000009F
:10016000000000000000000000000000D146000870
:10017000D146000800000000000000000000000060
:1001800000000000D1460008000000000000000050
:10019000000000000000000000000000000000005F
:1001A0000000000000000000D1460008D146000811
:1001B000D1460008D1460008D146000800000000E2
:1001C00000000000D1460008000000000000000010
:0801D000D1460008D1460008E9
:1001D8000348044B834202D0034B03B118477047CE
:1001E8006000002060000020000000000548064B69
:1001F8001B1AD90F01EBA301491002D0034B03B11D
:1002080018477047600000206000002000000000D0
:1002180010B5064C237843B9FFF7DAFF044B13B146
:100228000448AFF300800123237010BD6000002054
:1002380000000000DC46000808B5044B1BB1044967
:100248000448AFF30080BDE80840CFE70000000095
:1002580064000020DC46000870B50F4B0F4DAB4220
:10026800A3EB050607D0B610002455F8043B01346B
:100278009847A642F9D804F02DFA094D094B5E1BA0
:10028800AB424FEAA60606D0002455F8043B0134D9
:100298009847A642F9D870BD404700084047000873
:1002A8004047000848470008830730B547D0541E28
:1002B800002A3ED0CAB2034601E0013C39D303F814
:1002C800012B9D07F9D1032C2CD9CDB205EB0525BF
:1002D8000F2C05EB054535D9A4F1100222F00F0CBF
:1002E80003F1100EE6444FEA121C1A46C2E9005503
:1002F800C2E9025510327245F8D10CF1010214F02E
:100308000C0F03EB021204F00F0C13D0ACF1040332
:1003180023F003030433134442F8045B9342FBD1F4
:100328000CF003042CB1C9B21C4403F8011BA3420E
:10033800FBD130BD64461346002CF4D1F9E70346DF
:100348001446C0E71A46A446E0E700BF014B186808
:10035800704700BF0400002010B5054C34B11346A7
:100368000A460146022000F017F910BD204610BDCC
:10037800A1050008024B0146186800F02FB800BF1D
:1003880004000020024B0146186800F0A7B800BF1F
:100398000400002070B5104E336805460C46B3B112
:1003A8002146284600F052F9431C0CD0C41C24F006
:1003B8000304A04205D0211A284600F047F901306D
:1003C80001D0204670BD4FF0FF34204670BD19465D
:1003D80000F03CF93060E3E7C00200202DE9F84363
:1003E800CD1C25F0030508350C2D38BF0C25002D34
:1003F800064618DBA94216D8DFF8DC8000F022F99F
:10040800D8F80420A2B1144603E0636822467BB101
:100418001C4623685B1BF8D40B2B1FD894426368D7
:1004280054D053600CE00C2333600020BDE8F883FF
:1004380029463046FFF7AEFF431C044619D0056035
:10044800304600F001F904F10B00231D20F00700ED
:10045800C21A1CBF1B1AA350BDE8F8836119944245
:10046800256014BF5160C8F80410635163684B607D
:10047800E6E7D8F804701FB33C467F68002FFBD12D
:1004880023683946304604EB030900F0DFF881455C
:1004980016D12368ED1A29463046FFF77BFF013055
:1004A8000ED02368D8F804202B442360536883B106
:1004B800A34203D01A465B689C42FBD10023B0E7F5
:1004C8000C233360304600F0BFF8AEE7C8F80430BC
:1004D800B6E7C8F80470B3E7C0020020002950D07E
:1004E80038B551F8043C0C1F002BB8BFE41805467A
:1004F80000F0A8F8274A13682BB1A3420CD9216849
:10050800601883422CD0636028461460BDE83840E8
:1005180000F09AB8A3420FD81A465B68002BF9D1AD
:1005280011685018844217D02CD363605460284651
:10053800BDE8384000F088B811685018A04214D0BF
:1005480020D8216860188342EFD118685B68084496
:10055800C4E900035460EAE723680B441360E6E744
:1005680018685B6808442060CDE72068014450188B
:1005780083421160DBD1D3E900040144C2E90014CD
:10058800D5E770470C232B602846BDE8384000F0BB
:100598005BB800BFC4020020F0B5264C256883B0C4
:1005A80006460F4605B36C681F2C3FDCA6B1D5F88C
:1005B800880048B3D0F8001140F824204FF0010C0F
:1005C8000CFA04FC00EB84024CEA0101022EC0F88C
:1005D8000011C2F8803010D0A31C01346C6045F8BB
:1005E8002370002003B0F0BD13481449216010B1F6
:1005F8000068C1F88800114DD5E7D0F8043143EA06
:100608000C03C0F80431E7E70D49CDE9002369B1CF
:100618004FF48470FFF7AEFE40B10021C0E94011ED
:10062800DDE900236C68C5F88800C5E74FF0FF30A6
:10063800D8E700BF54030020F4460008C802002091
:100648007D030008704700BF704700BF38B5074DED
:100658000022044608462A6003F0ECFF431C00D041
:1006680038BD2B68002BFBD0236038BD5803002011
:1006780053B94AB9002908BF00281CBF4FF0FF3101
:100688004FF0FF3000F06AB9ADF1080C6DE904CE07
:1006980000F006F8DDF804E0DDE9022304B0704755
:1006A8002DE9F047089D0E4604460F46002B4AD117
:1006B80094468C45B2FA82F260D942B1C2F1200365
:1006C800974020FA03F30CFA02FC1F4394404FEAC8
:1006D8001C4E1FFA8CF6B7FBFEF1230C0EFB1177AC
:1006E80043EA074301FB06F098420AD91CEB0303CF
:1006F80001F1FF3780F01581984240F212810239EA
:1007080063441B1AA4B2B3FBFEF00EFB103344EA99
:10071800034400FB06F6A6420AD91CEB040400F1C8
:10072800FF3380F00081A64240F2FD806444023825
:1007380040EA0140A41B00211DB1D4400023C5E9B3
:100748000043BDE8F0878B4205D90DB1C5E900012A
:1007580000210846F5E7B3FA83F1002946D1B342F0
:1007680002D3824200F2F580841A66EB030201206C
:100778001746002DE5D0C5E90047E2E7002A40F01A
:100788009380A1EB0C034FEA1C471FFA8CFE012152
:10079800B3FBF7F607FB1630230C43EA00430EFBC6
:1007A80006F0984208D91CEB030306F1FF3802D281
:1007B800984200F2D08046461B1AA4B2B3FBF7F069
:1007C80007FB103344EA03440EFB00FEA64508D994
:1007D8001CEB040400F1FF3302D2A64500F2B680F8
:1007E8001846A4EB0E0440EA0640A5E7C1F120072D
:1007F8008B4022FA07FC4CEA030C06FA01FE20FAA9
:1008080007F426FA07F344EA0E0400FA01F84FEA5F
:100818001C404FEA1449B3FBF0FE1FFA8CF600FBAC
:100828001E3349EA03430EFB06F9994502FA01F221
:100838000BD91CEB03030EF1FF3A80F08580994534
:1008480040F28280AEF1020E6344A3EB0909A4B220
:10085800B9FBF0F300FB139944EA094403FB06F6DD
:10086800A64208D91CEB040403F1FF3068D2A64263
:1008780066D9023B644443EA0E40A41BA0FB02E68F
:10088800B4427346B14652D34FD05DB1B8EB0302C0
:1008980064EB090404FA07F722FA01F31F43CC407A
:1008A800C5E9007400214CE7C2F1200120FA01F3E8
:1008B8000CFA02FC26FA01F1964033434FEA1C4732
:1008C8001FFA8CFEB1FBF7F007FB1016190C41EA72
:1008D800064100FB0EF68E4204FA02F408D91CEB1E
:1008E800010100F1FF382DD28E422BD90238614424
:1008F800891B9BB2B1FBF7F607FB161143EA0143CC
:1009080006FB0EF1994208D91CEB030306F1FF38E8
:1009180014D2994212D9023E63445B1A46EA004156
:1009280036E73946EDE6184602E7F045ADD2BEEBAC
:10093800020366EB0C060138B146A6E74646ECE72B
:10094800034698E74046D3E7D6467EE76444023834
:1009580047E708460DE7023E63442DE7704700BFAE
:1009680010B50446006810B10368DB689847204654
:1009780010BD00BF024A0349034803F0A6BE00BFEA
:1009880000000020690900085C0300200000000046
:1009980010B594B03822002106A8FFF785FC002086
:1009A800CDE90100CDE90300059002F00DFB9FEDB4
:1009B800147B0122022303240F9206A828228DED1E
:1009C800067BCDE90D34CDE91023CDE9123301F0D2
:1009D80013FC08B172B6FEE7042103460F220DEBA3
:1009E8000100CDE90124CDE90333059301F082FE2E
:1009F80008B172B6FEE714B010BD00BFAFF30080B7
:100A0800010000000000050008B501F0C1FBFFF778
:100A1800BFFF00F029F800F097FA00F0DFF800F0C7
:100A2800A3FC00F081FA00F0ABFD00F073FB00F0CE
:100A3800B5FA00F007FD00F045F900F033FB00F0CF
:100A480023FC00F01FFE054C2046042102F0D2F9D9
:100A58004FF47A7001F0BEFBF6E700BF00040048CF
:100A680072B6FEE7000000002DE9F04F00248DB0BB
:100A7800CDE90844CDE90A44534B544EDA6CDFF80B
:100A88005481DFF85491524842F02002DA64DA6C5B
:100A980002F020020592059ADA6C42F00402DA6448
:100AA800DA6C02F004020492049ADA6C42F0010251
:100AB800DA64DA6C02F001020392039ADA6C02211A
:100AC8000A43DA64DA6C0A400292029ADA6C42F05B
:100AD8001002DA64DA6C02F010020192019ADA6C00
:100AE80042F00802DA64DB6C03F008039FED347B04
:100AF80000934FF09045009B8162042710234FF02C
:100B0800800B4FF4806AAB6206A9B762C8F828B0B8
:100B1800C6F828A0C9F828708DED067B00F08EFE77
:100B2800102306A9284601250693CDE908440A940E
:100B3800079500F083FE06A93046CDE90675CDE994
:100B480008450A9400F07AFE06A94046CDE906B5A4
:100B5800CDE908440A9400F071FE06A94FF48042DA
:100B680000234046CDE906230A9500F067FE4FF4BE
:100B78000042002306A94046CDE906230A9500F065
:100B88005DFE06A93046CDE906A5CDE908450A94DB
:100B980000F054FE06A94846CDE908440697079593
:100BA8000A9400F04BFE8022002306A93046CDE9C6
:100BB80006230A9400F042FE0DB0BDE8F08F00BF96
:100BC800020000000100000000100240000400487C
:100BD8000014004800100048000C004810B500241C
:100BE8008CB02022214604A8CDE901440394FFF7E4
:100BF8005BFB30484FF440334FF0A042C0E900237C
:100C08000123C0E9044380F838304FF48053C363AC
:100C180008238361032303624FF4A46C4FF48063B9
:100C2800C0E90244C0E90BC3848380F8244080F8FB
:100C3800404000F0C7FE68BB00231E48019301A98D
:100C480001F01CFA98BB1C4A062305207F21CDE938
:100C58000423CDE9060104220023164804A9CDE99E
:100C6800082300F0A3FFF8B9144A12480C2304A97A
:100C7800CDE9042300F09AFF98B9114C0D481222CF
:100C8800072304A9CDE90442069300F08FFF20B999
:100C98000CB010BDFFF7E4FECEE7FFF7E1FE0CB0A5
:100CA80010BDFFF7DDFEE8E7FFF7DAFEDCE7FFF748
:100CB800D7FEC8E790040020040060080080F03EDA
:100CC800000021C310B588B0202200216846FFF734
:100CD800EBFA254C25484FF44031C0E90041082182
:100CE8008161022101624FF4A461C1624FF4806105
:100CF8000023012201634FF48051C0E90233C0E9A7
:100D08000432838380F8243080F83820C16380F867
:100D1800403000F057FEE8B9154A062305207F2128
:100D2800CDE90023CDE90201042200230F486946DA
:100D3800CDE9042300F03AFF98B90E4C0B480C2279
:100D480007236946CDE90042029300F02FFF20B93E
:100D580008B010BDFFF784FEDEE7FFF781FE08B09C
:100D680010BDFFF77DFEE8E70001005024040020D5
:100D7800020030040002B02570B504469CB0002182
:100D880044220BA8CDE90611CDE908110A91FFF715
:100D98008BFA2368B3F1A04F04D05A4A934261D02A
:100DA8001CB070BD4FF400424FF000530BA80B92DB
:100DB8001A9301F0C7FD002840F09D80524A13683D
:100DC8000133012B136009D1504BDA6C42F4005205
:100DD800DA64DB6C03F400530093009B4B4B4C4DDF
:100DE800DA6C42F00102DA64DA6C02F00102019274
:100DF800019ADA6C42F00202DA64DB6C03F0020357
:100E0800029302220323002606A94FF09040CDE961
:100E180006230896029B01F0E5FE012203233D48C4
:100E2800089606A9CDE9062301F0DCFE3A4A052317
:100E3800C5E9002380234FF400712B614FF4006350
:100E4800C5E9051320224FF40053C5E90266C5E938
:100E58000723284601F0D8FF002849D16565AC6210
:100E68001CB070BD4FF400424FF000530BA80B921A
:100E78001A9301F067FD002840D1234A1368013313
:100E8800012B136009D1214BDA6C42F40052DA6469
:100E9800DB6C03F400530393039B1C4B1F48DA6C71
:100EA8001F4D42F00402DA64DA6C02F00402049284
:100EB800049ADA6C42F00102DA64DB6C03F0010395
:100EC800059308220323002606A9CDE906230896E0
:100ED800059B01F087FE0122032306A94FF09040ED
:100EE800CDE90623089601F07DFE0E4A24239FE7EC
:100EF800FFF7B6FDB2E7FFF7B3FD5FE7FFF7B0FD19
:100F0800BBE700BF00010050600300200010024052
:100F1800C4030020000400480800024000080048FC
:100F2800640300201C000240064B9A6C42F0080241
:100F38009A649B6C82B003F008030193019B02B092
:100F4800704700BF00100240134B10B5986C40F07A
:100F5800040098649C6C82B004F004040094009C23
:100F68009C6C44F001049C649B6C002203F0010318
:100F7800114601930B20019B02F0B2F80B2002F0FE
:100F8800EBF8002211460C2002F0AAF80C2002B05F
:100F9800BDE8104002F0E0B80010024011481249C4
:100FA80010B5012301604FF44071C0E901311824E4
:100FB80037210022C0E90534C0E908430382C16132
:100FC800836304210523C0E90C12C2608274816224
:100FD800C263C36202F0E8F800B910BDBDE8104072
:100FE800FFF73EBDFC040020006400400000000044
:100FF80010B5044698B00021442207A8CDE9021193
:10100800CDE904110691FFF74FF9234B22689A4264
:1010180001D018B010BD4FF480524FF0007307A8EC
:101028000792139301F08EFC50BB1C4B1C489A6D21
:1010380042F000729A659A6D02F000720092009A6E
:10104800DA6C9FED117B42F00202DA64DB6C8DED05
:10105800027B9FED0F7B03F00203019302A9092392
:101068008DED047B0693019A01F0BCFD002202215C
:10107800152002F035F8152002F06EF818B010BDF2
:10108800FFF7EEFCD1E700BF0003000002000000FC
:101098000000000000000000006400400010024052
:1010A8000004004810B51848184C194900230122BB
:1010B800C0E90041C0E90232C0E90433C0E906339F
:1010C800036202F039FA50B90F48002102F08EFA93
:1010D80068B90D48002102F0B3FA80B910BDFFF7D6
:1010E800BFFC0948002102F081FA0028F1D0FFF77F
:1010F800B7FC0548002102F0A3FA0028EED0BDE8AD
:101108001040FFF7ADBC00BFB805002000580040F4
:10111800E49DD23010B51848184C19490023012213
:10112800C0E90041C0E90232C0E90433C0E906332E
:10113800036202F001FA50B90F48002102F056FA92
:1011480068B90D48002102F07BFA80B910BDFFF79D
:1011580087FC0948002102F049FA0028F1D0FFF77E
:101168007FFC0548002102F06BFA0028EED0BDE8AC
:101178001040FFF775BC00BF6005002000780040F4
:10118800E49DD2300000000010B504469AB000215A
:10119800442209A8CDE90411CDE906110891FFF709
:1011A80083F8354A2368934204D0344A93422CD0BA
:1011B8001AB010BD802309A8099301F0C3FB0028C9
:1011C8004DD12F4CE36C43F00103E364E36C9FEDD6
:1011D800287B03F0010300930423009A089301225B
:1011E800002304A94FF09040CDE906238DED047B40
:1011F80001F0F8FCA36D43F48003A365A36D03F429
:1012080080030193019B1AB010BD4FF4807309A8A5
:10121800099301F097FB28BB194C1A48E36C43F07B
:101228000403E364E36C9FED127B03F00403029371
:101238000823029A08930022002304A9CDE9062373
:101248008DED047B01F0CEFCA36D43F08043A365D4
:10125800A36D03F080430393039B1AB010BDFFF7FF
:10126800FFFBAEE7FFF7FCFBD6E700BFAFF300805C
:101278000003000012000000005800400078004001
:1012880000100240000800482DE9704392B0002485
:101298002822002108A8FFF707F8CDE90544304BBC
:1012A8001A6E42F480521A661A6E02F48052019243
:1012B800019ADA6C42F00102DA64DB6C03F0010394
:1012C8000093202202230125CDE9022302A9052348
:1012D8004FF09040009A04950793022600F0AEFA6A
:1012E8004FF00008402302A94FF005094FF0904045
:1012F800CDE90454CDE90236CDE9068900F09EFA1D
:1013080002A980234FF09040CDE904540293CDE91F
:101318000689039600F092FA4FF48273CDE90843E8
:101328004FF47063CDE90B450A930E4D4FF40073EB
:101338000D931823CDE90E340022072308A9284667
:10134800CDE9102302F0A8F96B6823F010036B6055
:101358006B6823F008036B6012B0BDE8708300BFB0
:1013680000100240003001402DE9F04192B0002405
:101378002822002108A8FEF797FFCDE904442E4B48
:101388002E4D9A6D42F400429A659A6D02F400421D
:101398000192019ADA6C42F00202DA64DB6C03F023
:1013A8000203082200930226062702A902232846E0
:1013B800CDE902234FF00208009BCDE9066700F053
:1013C8003DFA102302A92846CDE90238CDE906677F
:1013D800CDE9044400F032FA02A9202328460293FA
:1013E800174DCDF80C80CDE90667CDE9044400F02F
:1013F80025FA4FF482724FF47063CDE908420A93DC
:101408004FF400723023CDE90D2308A900220723E9
:101418002846CDE91023CDE90B440F9402F03CF99E
:101428006B6823F010036B606B6823F008036B6034
:1014380012B0BDE8F08100BF00100240000400486F
:10144800003C004000B51248124985B0A022002394
:10145800C0E900124CF25032CDE90133C0E9023242
:101468000393836102F0D0FB50B90023084801932D
:1014780001A9039302F0F2FC28B905B05DF804FB5A
:10148800FFF7EEFAF1E7FFF7EBFA05B05DF804FBBA
:1014980010060020001400400E4B02689A4200D04B
:1014A800704703F5644300B5186E40F40060186691
:1014B8001B6E83B003F400630193002201211920FD
:1014C800019B01F00DFE192003B05DF804EB01F05B
:1014D80043BE00BF002C01400E4B02689A4200D068
:1014E800704703F5FE3300B5986D40F0200098650D
:1014F8009B6D83B0002203F020030193114637202F
:10150800019B01F0EDFD372003B05DF804EB01F01D
:1015180023BE00BF0014004000B5174A016889B017
:1015280000239142CDE90233CDE90433069302D07A
:1015380009B05DF804FB03F1804303F504339FED24
:101548000C7BDA6C0D4842F01002DA64DB6C03F0B5
:101558001003019302A902238DED027B019A0693E1
:1015680001F040FB09B05DF804FB00BFAFF3008059
:10157800003F000002000000002C0140001000485D
:1015880010B5002498B0342221460BA8CDE90144B7
:10159800CDE90544CDE90744CDE909440094049414
:1015A800FEF782FE3548364A84610123C0E90023EC
:1015B800102140F2CF73C0E90444C0E9021302F0DD
:1015C80055FB002844D100232022CDE900232B48D5
:1015D80000236946029302F041FC00284BD1002009
:1015E80000210022CDE9080160232448049304A9BE
:1015F800CDE9052207920A9202F0ACFB002837D108
:101608001E48042204A902F0A5FB70BB1B4808224F
:1016180004A902F09FFB28BB00234FF400544FF0AD
:101628000072164817930BA9CDE90B33CDE90D339A
:10163800CDE90F34CDE91133CDE91332CDE91533B6
:1016480002F05EFC38B90D48FFF766FF18B010BD10
:10165800FFF706FAB7E7FFF703FA0848FFF75CFF5A
:1016680018B010BDFFF7FCF9D6E7FFF7F9F9CDE799
:10167800FFF7F6F9C4E7FFF7F3F9B0E760060020D3
:10168800002C014010B51F481F4C00234FF4E131D6
:101698000C22C0E90041C0E90233C0E90432C0E9C4
:1016A8000633C0E90833836202F0FCFE70B91548BE
:1016B800002102F069FF88B91248002102F08AFF70
:1016C800A0B9104802F042FFB8B910BDFFF7C8F939
:1016D8000C48002102F058FF0028EDD0FFF7C0F9B0
:1016E8000848002102F076FF0028EAD0FFF7B8F991
:1016F800044802F02BFF0028E7D0BDE81040FFF7B0
:10170800AFB900BFB0060020004400400000000050
:1017180010B5044698B00021442207A8CDE902116B
:10172800CDE904110691FEF7BFFD1D4B22689A42D0
:1017380001D018B010BD022307A8079301F002F9E1
:1017480018BB184B9A6D42F400329A659A6D02F4F0
:1017580000320092009ADA6C9FED0D7B42F0010294
:10176800DA64DB6C8DED027B9FED0B7B03F00103EC
:10177800019302A907234FF090408DED047B019A55
:10178800069301F02FFA18B010BDFFF769F9D8E7F2
:101798000C00000002000000000000000000000033
:1017A8000044004000100240FEE700BFFEE700BF13
:1017B800FEE700BFFEE700BFFEE700BF704700BFBF
:1017C800704700BF704700BF00F0F2BC014801F04D
:1017D800ADBB00BFC4030020014801F0A7BB00BF98
:1017E80064030020014801F0E3BD00BFFC040020B1
:1017F800014802F0C3B800BF60060020014802F0AB
:10180800BDB800BF100600200B4B1A6E42F0010253
:101818001A661A6E82B002F001020092009A9A6D5E
:1018280042F080529A659B6D03F080530193019BAF
:1018380002B001F03BBC00BF001002402DE9F04FA0
:101848000D6883B095FAA5F2002A00F08F80B2FAED
:1018580082F235FA02F300F08980EB434FF0010C75
:101868004FF0030E01931BE0076893FAA3F8B8F151
:10187800000F07D0B8FA88F84FEA48080EFA08F8B7
:1018880027EA080793FAA3F3002B73D0B3FA83F37C
:101898005B009C403C430460013235FA02F365D09A
:1018A8000CFA02F32B40F7D04C68671E012F3AD987
:1018B800D1F81080D0F80C9093FAA3F737B1B7FAA3
:1018C80087F77F000EFA07F729EA070993FAA3F7C3
:1018D800002F51D0B7FA87F77F0008FA07F848EACF
:1018E8000907022CC760BFD1FF2BD1F8149045D847
:1018F800D0F8208093FAA3F747B1B7FA87F7BF006B
:101908004FF00F0A0AFA07F728EA070893FAA3F72D
:10191800002F53D0B7FA87F7BF0009FA07F747EA4D
:1019280008070762A0E7D1F80880D0F8089093FA72
:10193800A3F737B1B7FA87F77F000EFA07F729EA56
:10194800070993FAA3F7BFB3B7FA87F77F0008FA36
:1019580007F848EA090787604768019E3740CE685C
:1019680006FB05F847EA08074760A1E7002003B02F
:10197800BDE8F08F40238CE74027AEE7D0F82480FD
:101988001F0A97FAA7FABAF1000F09D0BAFA8AFA29
:101998004FEA8A0A4FF00F0B0BFA0AFA28EA0A08EC
:1019A80097FAA7F767B1B7FA87F7BF0009FA07F9F7
:1019B80049EA0807476257E74027C8E78027ACE7A6
:1019C8008027F3E730B583B000230193002800F0A7
:1019D800AA80C56D0446002D00F0AA80226893688D
:1019E8009D0005D5936823F0204323F03F039360BF
:1019F8009368D80019D4684B68481B6891689B099C
:101A0800A0FB030321F010419B0921F03F010133A2
:101A18005B0041F0805191600193019B2BB1019BC8
:101A2800013B0193019B002BF9D19368D9007DD428
:101A3800E36D43F01003E365236E0120034323663F
:101A4800936813F0040FE36D69D1DB0667D4E36D87
:101A580023F4817343F00203E3659368DD0709D437
:101A68004FF0A0439B6813F0010F4D4B9B6801D1C9
:101A7800D90770D5E568E36B94F824102B43A56863
:101A88002B43657F012943EA453343EA014355D097
:101A9800E16A21B1256B01F4787129430B43D568BC
:101AA800404929401943D1601369616B23F04063B1
:101AB8000B43136193681B0722D4D16894F838301C
:101AC800257F21F480415B0021F0020143EA853340
:101AD8000B432169D3601369002944D043F4803350
:101AE8001361D2F8C0306FF30D030B43C2F8C03056
:101AF80094F84030012B40D0136923F0010313619F
:101B08006369012B1FD0136B23F00F031363E36D7D
:101B180023F0030343F00103E36503B030BDE36D35
:101B280043F01003E365012003B030BD002087E7D0
:101B3800FFF722F9256684F858504FE7A16A013962
:101B480043EA4143A4E7116B236A21F00F01013BEB
:101B58000B431363DBE7144965688B6823F47C1334
:101B68002B438B6086E723F480331361D2F8C030AF
:101B78006FF30D03C2F8C030BAE71169636CA56C46
:101B88006FF38A012B430B43E16C0B43216D0B432D
:101B980043F001031361B3E75C000020632D3E05A9
:101BA800000100500740F0FF00030050F0B590F826
:101BB800582083B00346012A4FF00000019000F03E
:101BC8002E811A68012083F858009468640757D456
:101BD80048684FEA901E00F01F0C0EF00C0E0868C3
:101BE80002F13004C0F3846054F80E501F2600FA46
:101BF8000CF006FA0CFC25EA0C0C40EA0C0044F840
:101C08000E009068400744D5906808689468E60715
:101C1800054613D4CF68B44CD2F8B06007F0180C5E
:101C280024FA0CF4C0F3120C044026EA0C063443E0
:101C3800C2F8B040AD4CA74200F0A080AC490D42BC
:101C48001CD0AC48AC4C8168A54201F0E07672D05B
:101C5800AA4CA5426FD0AA4CA54200F0E380A94C3B
:101C6800A5420BD1490209D4A7498A4206D0826805
:101C780022F0E072324342F480028260002003E0E6
:101C8800DA6D42F02002DA65002283F8582003B0AA
:101C9800F0BD946808682707B8D48D68C0F3045667
:101CA8000724C00DB440B5F1004F00F004006FEAFE
:101CB800040400F00F8102F11407B5403E58344087
:101CC8002C433C50506920F000405061D1E9046435
:101CD800042ED568086800F0C980C5F3C1056D00F9
:101CE80000F0F84704FA05F002F16004874D54F853
:101CF80026C00CEA05053D43284340F0004044F85F
:101D080026000D698E6954F8250020F08070304354
:101D180044F825000E690D7F54F82600A5F1010549
:101D2800B5FA85F56D0920F0007040EA456044F881
:101D3800260008686AE70D02A0D4B2F1A04F9DD131
:101D48006C4973488A6822F0E072324342F4000218
:101D58008A6002686F499209A1FB02129209013256
:101D680002EB420292000192019A002A86D0019A5F
:101D7800013A0192019A002AF9D17FE7BCF1000FDC
:101D88005FD090FAA0F4002C00F0C680B4FA84F476
:101D9800013404F01F04092C40F2BE8090FAA0F42C
:101DA800002C00F05E81B4FA84F40134A40604F037
:101DB800F84490FAA0F5002D00F05181B5FA85F5A8
:101DC800013505F01F05012606FA05F52C4390FAA2
:101DD800A0F0002800F04181B0FA80F0451C05F021
:101DE8001F0503206FF01D0610FB0560000540F07D
:101DF80000702043C50D8C6805F0040502F1140637
:101E0800C0F3045004FA00F74FF0070C74590CFAA9
:101E180000F024EA0000384370510D680EE70220F4
:101E280003B0F0BDCC013FF529AF37498A423FF4F2
:101E380025AF826822F0E072324342F080728260FD
:101E48001CE7800E013000F01F050124800600F019
:101E5800F840AC40092D44EA000405EB450040F287
:101E680080801E38000540F00070C2E7146E146EC2
:101E7800C0F31205C4F38464002D74D1C0F38466E2
:101E8800B44200F0A680546E556E02F16004C5F3AA
:101E9800846502F1640CB54200F0C180A568A568AC
:101EA80004F10807C5F38465C0F38466AE4200F008
:101EB800A480E568E56804F10C06C5F38464C0F302
:101EC8008465A5427FF4A2AE306820F000403060FF
:101ED80008689BE602F1140635582C4034505069C6
:101EE80040F000405061F1E6FFFF070000007F402E
:101EF8000000088000030050000021C31000C090BB
:101F0800000052C7000084CB0001005000F0FF031E
:101F18005C000020632D3E0590FAA0F4002C00F030
:101F2800A880B4FA84F40134A40604F0F84490FAC2
:101F3800A0F5002D00F09B80B5FA85F5013505F078
:101F48001F05012606FA05F52C4390FAA0F0002893
:101F580000F08A80B0FA80F0013000F01F0000EB3A
:101F68004000000545E790FAA0F51DB1B5FA85F5E2
:101F7800AC422ED0546E556E02F16004C5F38465F0
:101F880002F1640C90FAA0F604F10807BE46002E90
:101F98005ED0B6FA86F6AE4243D03D683D68C5F3DA
:101FA800846590FAA0FC04F10C06B646BCF1000F5B
:101FB80049D0BCFA8CFCAC4521D034683468C4F3F1
:101FC800846490FAA0F5002D3FF420AEB5FA85F5AB
:101FD80077E7106E144620F0004044F8600F506E0A
:101FE8000868556EC0F3120602F1640CC5F38465E7
:101FF800002EC7D1C0F384664DE704F10C0E386893
:1020080020F000403860E0680868E468C0F3120512
:102018007646C4F38464002D3FF451AFD1E704F150
:10202800080EDCF8000020F00040CCF80000A068A2
:102038000868A568C0F312067746C5F38465002EC4
:102048003FF432AFADE7E568E468C4F38464B8E709
:10205800A568A568C5F38465A3E70748C9E602250E
:10206800B4E64FF08064A4E64FF44010C1E60225C0
:102078006AE74FF080645AE7000050FE90F8582055
:10208800012A45D0F0B404689CB003460022012020
:10209800B4F1A04F189283F85800199208D0D96D5E
:1020A80083F8582041F02001D9651CB0F0BC704776
:1020B800224A906840070BD5A268DA6D42F02002E8
:1020C8000120DA65002283F858201CB0F0BC704764
:1020D800A0684507F1D40D68E5B1194E4F68B0689E
:1020E80093F838C020F46040384340EA4C30B06080
:1020F800A0689268C0071ED4D7071CD4B268896844
:1021080022F471620D4322F00F021543B56012E00C
:10211800022070470A48816821F460418160A16803
:102128009268CD0707D4D40705D4826822F4716277
:1021380022F00F0282600020C4E700BF00010050B7
:102148000003005038B50F4B1B680BB9012038BD90
:102158000D494FF47A720546B2FBF3F30868B0FBF9
:10216800F3F001F007F804460028EFD10F2DEDD861
:10217800024629464FF0FF3000F0B2FF034B2046DD
:102188001D6038BD540000205C000020580000206D
:1021980010B5032000F092FF0F20FFF7D3FF10B116
:1021A8000124204610BD0446FFF72EFB204610BD33
:1021B800034A0449136809680B441360704700BF59
:1021C8004407002054000020014B1868704700BFE6
:1021D8004407002038B50446FFF7F6FF631C0546A0
:1021E80002D0044B1B681C44FFF7EEFF401BA042C3
:1021F800FAD338BD54000020002800F0BD812DE935
:10220800F0410368D90782B0044612D5A6498A6806
:10221800C96802F00C020C2A00F0D080082A40F0AD
:10222800D280A14A1268920303D56268002A00F09E
:1022380037819A0722D59C4A9368D26803F00C0329
:102248000C2B00F0F880042B40F0FA80964B1B68AA
:102258005B0503D5E368002B00F02281924A2069D0
:102268005368924923F0FE4343EA006353600868C9
:10227800FFF768FF002840F0138123681A0719D573
:102288006369894D002B00F0C280D5F8943043F083
:102298000103C5F89430FFF797FF064605E0FFF7FE
:1022A80093FF801B022800F21781D5F894309B0712
:1022B800F5D523685D0741D57B4B9A6DD00000F1B9
:1022C8000F819A6D42F080529A659B6D03F080539E
:1022D8000193019B0125764E3368D90540F12E8183
:1022E800A368012B00F0FE80052B00F084816E4E60
:1022F800D6F8902022F00102C6F89020D6F8902057
:1023080022F00402C6F89020002B40F0F280FFF77C
:102318005BFF41F28838074605E0FFF755FFC01B11
:10232800404500F2D980D6F890309907F5D425B108
:102338005D4A936D23F08053936523689A0618D5F8
:10234800A369594D002B00F0E580D5F8983043F08B
:102358000103C5F89830FFF737FF064605E0FFF799
:1023680033FF801B022800F2B780D5F898309B070E
:10237800F5D5E369F3B14C4DAA6802F00C020C2ABA
:1023880000F04781022B2B6823F080732B6000F04C
:10239800F580FFF719FF044605E0FFF715FF001B5E
:1023A800022800F299802B689B01F6D4EA68414B19
:1023B8001340EB60002002B0BDE8F08101F003019A
:1023C80003293FF42EAF6368B3F5803F55D0B3F5CA
:1023D800A02F00F0C480344D2A6822F480322A608D
:1023E8002A6822F480222A60002B4BD1FFF7ECFEEA
:1023F800064604E0FFF7E8FE801B64286CD82B68CB
:102408009903F7D423689A077FF538AF13E7D5F80F
:10241800943023F00103C5F89430FFF7D5FE064643
:1024280004E0FFF7D1FE801B022855D8D5F8943078
:102438009F07F6D43DE702F00302022A3FF406AFF5
:10244800E368194D002B37D02B6843F480732B6059
:10245800FFF7BAFE064604E0FFF7B6FE801B022827
:102468003AD82B685F05F7D56B68226923F0FE43DD
:1024780043EA02636B60236800E70B4A136843F47E
:1024880080331360FFF7A0FE074E054604E0FFF710
:102498009BFE401B64281FD833689F03F7D5B1E71C
:1024A800012002B0BDE8F081001002405800002071
:1024B80000700040FCFFEEFE2B6823F480732B6055
:1024C800FFF782FE06462B6859057FF5D6AEFFF763
:1024D8007BFE801B0228F6D9032002B0BDE8F081FC
:1024E8000025F8E6654AD2F8903043F00103C2F8B7
:1024F8009030FFF769FE614F064641F2883804E0E4
:10250800FFF762FE801B4045E6D8D7F890309B075E
:10251800F6D50CE7D5F8983023F00103C5F89830C4
:10252800FFF752FE064604E0FFF74EFE801B022826
:10253800D2D8D5F898309F07F6D41AE7336843F411
:1025480080733360FFF740FE07463368DA053FF5CE
:10255800C7AEFFF739FEC01B0228F6D9BCE703F166
:102568008043A3F53C331A6842F480221A601A6843
:1025780042F480321A6085E701207047FFF724FE95
:10258800064604E0FFF720FE801B0228A4D82B682B
:102598009901F7D4E9683A4B226A606A0B40134301
:1025A800D4E90A1243EA012343EAC263D4E90C12CC
:1025B8000138490843EA00130139520843EA4153F4
:1025C800013A43EA4263EB602B6843F080732B6067
:1025D800EB6843F08073EB60FFF7F6FD274D044688
:1025E80005E0FFF7F1FD001B02283FF675AF2B68E9
:1025F8009A01F6D5DEE6214BD3F8902042F004028A
:10260800C3F89020D3F8902042F00102C3F890203C
:102618006FE7012B3FF444AFEB68226A03F0030134
:1026280091427FF43DAF616A03F0F0020139B2EBE9
:10263800011F7FF435AFA16A03F4FE42B2EB012F0C
:102648007FF42EAFE16A03F07842B2EBC16F7FF4FA
:1026580027AF226B520803F4C001013AB1EB425F85
:102668007FF41EAF626B520803F0C063013AB3EB0C
:10267800426F14BF012000209DE600BF00100240F9
:102688000C809F01184B9A6802F00C02042A26D08D
:102698009A6802F00C02082A23D09A6802F00C0209
:1026A8000C2A01D000207047D968DA68D86801F090
:1026B80003010329C2F30312C0F306200CBF0B4B1E
:1026C8000B4B0132B3FBF2F303FB00F0064BDB6864
:1026D800C3F3416301335B00B0FBF3F07047044878
:1026E80070470248704700BF0010024000127A008D
:1026F8000024F400002800F0EE80784A2DE9F84321
:10270800136803F00F038B420D4604460CD213687E
:1027180023F00F030B431360136803F00F038B427E
:1027280002D00120BDE8F8832368DF0769D5676810
:10273800032F00F0A0806A4B022F1B6800F09780DF
:102748005B05EED5FFF79EFF664B984240F2C080CE
:10275800634A936823F0F00343F0800393604FF0DB
:1027680080095F4EB36823F003033B43B360FFF770
:102778002BFD41F28838074604E0FFF725FDC01B12
:10278800404571D8B368626803F00C03B3EB820F5D
:10279800F3D123689F0736D4B9F1000F03D0B3688B
:1027A80023F0F003B3604D4E336803F00F03AB42E0
:1027B80046D823685A0706D54949E0688A6822F44A
:1027C800E06202438A601B0707D5454A216993687E
:1027D80023F4605343EAC1039360FFF753FF404A71
:1027E800414C92684149C2F303120346A25C404837
:1027F80002F01F02D3400B600068BDE8F843FFF702
:10280800A1BC9E07CFD5580704D535498A6842F43C
:10281800E0628A60190706D5314A936823F47C532D
:1028280043F4E06393602E4AA16893682B4E23F02B
:10283800F0030B439360336803F00F03AB42B8D93E
:10284800336823F00F032B433360FFF7BDFC41F2DD
:1028580088380746336803F00F03AB42A9D0FFF767
:10286800B3FCC01B4045F5D90320BDE8F8839A03A3
:102878003FF568AF55E71A4A116888017FF551AFEF
:10288800D068D168D268174E00F003000328C1F35E
:1028980003110CBF174818480131B0FBF1F110487B
:1028A800C2F3062201FB02F2C168C1F341610131A2
:1028B8004900B2FBF1F2B2420AD9826812F0F00F75
:1028C8003FF446AF990703D5A368002B3FF440AF08
:1028D8004FF0000945E70120704700BF0020024083
:1028E8000010024000B4C404284700085C0000201F
:1028F8005800002000127A000024F400054B064A14
:102908009B680649C3F302230868D35C03F01F03DE
:10291800D840704700100240204700085C000020A3
:10292800054B064A9B680649C3F3C2230868D35C73
:1029380003F01F03D84070470010024020470008EA
:102948005C0000202DE9F0410368044613F40020E0
:1029580082B052D0A14B9A6DD50040F10881002772
:102968009F4D2B6843F480732B60FFF72DFC0646C0
:1029780005E0FFF729FC831B022B00F203812B687B
:10298800D805F6D5954D226CD5F8903013F44073E0
:1029980026D0934224D0D5F89010D5F8903043F43F
:1029A8008033C5F89030D5F8903023F48033C5F8DB
:1029B800903021F44073C907C5F8903010D5FFF75F
:1029C80003FC41F28838064605E0FFF7FDFB801B53
:1029D800404500F2D780D5F890309B07F5D5226C9A
:1029E8007E49D1F8903023F440731343C1F89030F6
:1029F80023680020002F40F0CA80DE0708D57749F9
:102A08006568D1F8882022F003022A43C1F888209B
:102A18009D0708D57149A568D1F8882022F00C02D5
:102A28002A43C1F88820590708D56C49E568D1F8C8
:102A3800882022F030022A43C1F888201A0708D5D6
:102A480066492569D1F8882022F0C0022A43C1F8D6
:102A580088209F0608D561496569D1F8882022F445
:102A680040622A43C1F888205E0608D55B49A569FB
:102A7800D1F8882022F440522A43C1F888201D0644
:102A880008D55649E569D1F8882022F440422A43FE
:102A9800C1F88820D90508D55049256AD1F8882079
:102AA80022F440322A43C1F888209A0508D54B49B8
:102AB800656AD1F8882022F440222A43C1F8882088
:102AC8005F050BD54549A56AD1F8882022F4401244
:102AD8002A43B5F5801FC1F888205ED01E050BD5A6
:102AE8003E49E56AD1F8882022F440022A43B5F528
:102AF800800FC1F8882055D0DD040BD53749256BE8
:102B0800D1F8882022F040722A43B5F1807FC1F8BD
:102B180088204CD099040BD53049656BD1F88820B2
:102B280022F040622A43B5F1006FC1F8882043D0F3
:102B38005A040BD52949A56BD1F8882022F04062A8
:102B48002A43B5F1006FC1F888203AD01B040BD591
:102B5800224AE16BD2F8883023F040530B43B1F19D
:102B6800805FC2F8883031D002B0BDE8F0819A6D3C
:102B780042F080529A659B6D03F080530193019B4C
:102B88000127EDE623680320002F3FF436AF1349F1
:102B98008A6D22F080528A652FE7CA6842F4801253
:102BA800CA609BE7CA6842F48012CA60A4E7CA6890
:102BB80042F48012CA60ADE7CA6842F48012CA6063
:102BC800B6E7CA6842F48012CA60BFE7D36843F424
:102BD8008033D36002B0BDE8F08100BF001002402E
:102BE800007000402DE9F04F0C6885B0002C00F013
:102BF800888000234FF0010B0BFA03FE1EEA040A3B
:102C08007AD04D6805F0030C5A0003260CF1FF3802
:102C180006FA02F7B8F1010F6FEA070774D9BCF199
:102C2800030F40F0CC800CFA02F2D0F800C00CEA96
:102C380007073A4315F4403F02605DD0664F3A6E8D
:102C480042F001023A663A6E02F001020392039AD8
:102C580023F0030202F1804202F5803203F0030CF4
:102C680097684FEA8C0C0F2606FA0CFEB0F1904FCD
:102C780027EA0E071CD0594EB04200F08B80584E00
:102C8800B04200F08E80DFF860E170457BD0DFF85D
:102C98005CE1704500F08C80DFF854E170450CBFB2
:102CA8004FF0050E4FF0060E0EFA0CFC47EA0C0723
:102CB80097604C4A9268EE026FEA0A07494E54BF81
:102CC8003A404AEA0202B260F268AE02454E54BF88
:102CD8003A404AEA0202F2607268AE03414E54BFBB
:102CE8003A404AEA020272603268ED033D4D54BF31
:102CF8003A404AEA02022A60013334FA03F27FF4C6
:102D08007BAF05B0BDE8F08FD0F80890CE6809EA2F
:102D1800070906FA02F848EA0908C0F80880D0F856
:102D280004808E6828EA0E08C5F3001E0EFA03FE1A
:102D38004EEA080EC0F804E0D0F80C8006FA02FE4D
:102D480008EA07084EEA080EBCF1020FC0F80CE0CA
:102D58007FF469AF0E694FEAD30803F0070E00EB62
:102D680088084FEA8E0E06FA0EF6D8F820900196DB
:102D78000F2606FA0EFE019E29EA0E0946EA090EFA
:102D8800C8F820E04FE74FF0030E0EFA0CFC47EAB4
:102D98000C078DE74FF0010E0EFA0CFC47EA0C0702
:102DA80086E74FF0020E0EFA0CFC47EA0C077FE7A5
:102DB8004FF0040E0EFA0CFC47EA0C0778E7D0F83F
:102DC8000C808E6808EA070806FA02FE4EEA080E2A
:102DD800C0F80CE027E700BF0010024000040048DC
:102DE8000008004800040140000C0048001000489A
:102DF80000140048436901EA030221EA030141EA99
:102E080002418161704700BF002876D0F0B43C4A87
:102E18000468944203465CD93A493B4A3B482144FA
:102E2800A2FB01210909890002229D6883F8252057
:102E3800DA68354E364FC3E9100118692A43024350
:102E48005869024398690243D8690243E0B20838D6
:102E5800A6FB0060266826F4FF4C1E6A2CF0700C56
:102E6800324342EA0C022260254E2A4AC0F304107B
:102E7800B44298BF3A4606F27946012404FA00F0B3
:102E8800DE64B5F5804F01EB020618659E644FEAD3
:102E9800910127D05E68F5B2013E032E42F8215019
:102EA800C7F8840024D81C4A1C482A449200013DD3
:102EB800AC400021C3E91520DC651160184A546450
:102EC80000200122D86383F8240083F82520F0BC71
:102ED800704714490C4A14482144A2FB01210909EE
:102EE8008900A1E700245C6042F82140C7F884000B
:102EF8000022C3E91522DA65E2E70120704700BF26
:102F080007040240F8FBFDBFCDCCCCCC0004024046
:102F180000080240200802403F8200104009024099
:102F280000090240F8FFFDBF0000024070B4436C86
:102F3800066C056831682C6803F01F0304229A4068
:102F48000A420ED014F0040F0BD02B689B0603D452
:102F58002B6823F004032B60036B7260CBB170BC49
:102F6800184702229A400A4215D014F0020F12D0D4
:102F78002B68990606D42B6823F00A032B600123DB
:102F880080F82530C36A7260002180F82410002B75
:102F9800E5D170BC704708229A400A42F9D022074E
:102FA800F7D52A68416B22F00E022A60012202FA44
:102FB80003F300247360C26380F8244080F825205E
:102FC8000029E6D070BC0847354A136860B903F495
:102FD800C063B3F5806FD2F880301BD023F48073C0
:102FE800C2F8803000207047B0F5007F06D023F487
:102FF800C06343F4806313600020704703F4C06328
:10300800B3F5806FD2F8803029D043F48073C2F8CA
:103018008030F1E723F48073C2F8803013682148C8
:10302800214923F4C06343F400731360036832201A
:1030380000FB03F35069A1FB03139B0C400503F14C
:10304800010306D500E023B15169490503F1FF33B7
:10305800F9D4134B5B695B05CED50320704743F465
:103068008073C2F8803013680E480F4923F4C06398
:1030780043F4007313600368322000FB03F35069C4
:10308800A1FB03139B0C400503F10103E1D501E00B
:10309800002BDED05169490503F1FF33D9D5F7E795
:1030A800007000405C00002083DE1B43024A9368E6
:1030B80043F4804393607047007000400749CA6832
:1030C80003024FF6FF0003F4E0630240134343F0AA
:1030D800BF6343F40033CB60704700BF00ED00E0EE
:1030E8001B4BDB68C3F3022300B5C3F1070EBEF127
:1030F800040F03F1040C28BF4FF0040EBCF1060FB7
:103108001CD9A3F1030C4FF0FF3303FA0CF322EAA6
:1031180003024FF0FF3303FA0EF321EA030303FA25
:103128000CF313431B010028DBB20ADB00F16040FB
:1031380000F5614080F800335DF804FB00229446F6
:10314800E7E7044A00F00F00024413765DF804FB39
:1031580000ED00E0FCEC00E0002807DB044A410930
:10316800012300F01F00834042F82130704700BF60
:1031780000E100E00138B0F1807F01D30120704701
:1031880010B44FF0E023074C58614FF0F00C84F86E
:1031980023C00022072110469A615DF8044B19618B
:1031A800704700BF00ED00E0002800F0D98038B576
:1031B80090F85C30044603F0FF02002B71D02268BF
:1031C800936923F010039361FEF7FEFF054604E0C0
:1031D800FEF7FAFF401B0A285AD823689A69110794
:1031E800F6D49A6942F001029A61FEF7EDFF0546AE
:1031F80004E0FEF7E9FF401B0A2849D823689A69CA
:10320800D207F6D59A69594942F002028B429A616F
:1032180000F0A180227C012A9A690CBF22F04002AA
:1032280042F040029A61627C012A9A690CBF42F41A
:10323800804222F480429A61A27C012A9A690CBFDA
:1032480022F4805242F480529A619A69A068E16837
:1032580022F4407202439A619A6922F0A4029A61A8
:103268001A69012922F010021A611FD011B302292C
:103278009A6977D042F080029A611A69032942F06C
:1032880010021A6116D19A6942F020029A6111E07F
:10329800236E032243F00103236684F85C20012097
:1032A80038BD80F85D20FDF7A3FE88E79A6942F0F3
:1032B80004029A61D4E90612013A0139120242EA7B
:1032C8004162216A01390A436169013942EA0142CE
:1032D800B0F5407FDA610ED1D4E90B02A16A013A58
:1032E80001381201013942EA00220A43616A0139B0
:1032F80042EA0142DA60D3F8C020E06B616BA56B4B
:103308000243C3F8C020D3F880201948206422F46F
:10331800F81242EA0142C3F88020D3F88020154908
:10332800616422F0706242EA0562C3F88020124BA1
:10333800124A4031C4E91213F033C4E914230021BE
:103348004FF45472FCF7B0FF00200123206684F884
:103358005C30A06538BD0A4A6168C2F8001559E7B3
:103368000120704742F020029A61A3E70064004000
:1033780000A4004070A4004088A5004060A600405A
:1033880000600040704700BF704700BF704700BF33
:10339800704700BF704700BF704700BF704700BF4D
:1033A800704700BF704700BF704700BF704700BF3D
:1033B8002DE9F84F03681A6D596D02EA010A1A6D72
:1033C800596D02EA01091A6D596D1E6D02EA01086C
:1033D8005A6D1F6D16405A6DD3F854B01D6D1740C5
:1033E800690604460AF4E05A09F0070908F03808A3
:1033F80006F4710607F4602702D51BF0400F72D15E
:10340800EA0502D51BF4807F5DD1BAF1000F4AD1DD
:10341800B9F1000F35D1B8F1000F3CD1AB0502D599
:103428001BF4007F74D1280602D51BF0800F77D1DA
:10343800A90402D51BF4005F5AD12A0402D51BF453
:10344800004F5DD16B040AD51BF4804F07D0236869
:103458004FF480421A65236E43F0800323664FB908
:1034680026B123681E65236E33432366236E2BBB68
:10347800BDE8F88F236839461F652046FFF796FF99
:10348800EEE723684946C3F850902046FFF77CFFD3
:10349800B8F1000FC2D023684146C3F850802046D7
:1034A800FFF774FFBAE723685146C3F850A02046D7
:1034B800FFF768FFB9F1000FADD0E2E72046FFF74C
:1034C80073FFBDE8F88F2368D3F8D810D3F8E0204D
:1034D8004FF48070186511402046FFF75DFFBAF180
:1034E800000F95D0DFE740221A65FFF75BFF87E7FB
:1034F80023684FF400521A652046FFF74FFF9CE7F8
:1035080023684FF400421A652046FFF749FF99E700
:1035180023684FF400721A652046FFF739FF82E7E7
:103528002368D3F8D410D3F8DC2080201865114024
:103538002046FFF72FFF7BE7002854D010B590F8FE
:103548004130044603F0FF02002B47D023682422B1
:1035580084F841201968626821F0010122F0706244
:1035680019601A619A68E16822F4004201299A6098
:10357800A26809D042F4044202299A6007D15A6825
:1035880042F400625A6006E042F400429A605A68C7
:1035980022F400625A605968226941F0007141F4CE
:1035A800004159606169D8680A43A16920F4004064
:1035B80042EA0122E169D860206ADA6001431960B1
:1035C800196841F00101196000222023626484F81F
:1035D8004130226384F84220104610BD80F8402014
:1035E800FDF7D2FDB2E70120704700BF90F84120F7
:1035F800202A23D15FFA82FC90F84020012A034652
:103608001CD00268242000B583F84100106820F01F
:1036180001001060106820F48050106010680143A9
:10362800116011684FF0000E41F00101116083F83C
:1036380041C083F840E070465DF804FB0220704703
:1036480090F84120202A22D100B55FFA82FE90F836
:103658004020012A03461CD00268242083F8410038
:10366800106820F001001060106820F4706040EAD3
:103678000121116011684FF0000C41F00101116047
:1036880083F841E083F840C060465DF804FB0220FF
:10369800704702205DF804FB03685B06024632D4DB
:1036A80030B414684869D1E9003524F47F4CCC68FB
:1036B8002B4323430C698D6823438C6903432343BD
:1036C800CC6923430C6A2CF0BF0C234343EA0C0358
:1036D8001360536823F4706323F0040345EA104031
:1036E8001843B5F5006F506003D2536843F4805314
:1036F8005360B4F5005F0CD0D36923F40063002055
:1037080030BCD3617047D36923F400630120D361CF
:1037180070478B8C1361EFE7036A026A22F001029B
:10372800026270B4446882690D6822F4803222F023
:1037380073022A438D6823F002032B43134DA842DA
:103748000FD005F50065A8420BD005F54065A842E5
:1037580007D005F58065A84203D005F58065A84225
:103768000DD1CD6823F008032B43D1E9056524F476
:10377800407446EA050C23F004034CEA0404496843
:103788004460826170BC416303627047002C014051
:10379800036A026A22F48072026270B44468C269E1
:1037A8000D6822F4803222F073022A438D6823F4D4
:1037B800007343EA0523144DA8420FD005F50065B0
:1037C800A8420BD005F54065A8420ED00F4DA8427F
:1037D8000BD005F58065A8420FD106E0CD6823F42B
:1037E800006343EA052323F48063D1E9056524F4E3
:1037F800405446EA050C44EA0C1449684460C26126
:1038080070BCC16303627047002C01400044014052
:10381800036A026A22F48052026270B44468C26980
:103828000D6822F0807222F4E64242EA05228D6891
:1038380023F4005343EA0533144DA8420FD005F58D
:103848000065A8420BD005F54065A8420ED0104D82
:10385800A8420BD005F58065A8420FD106E0CD68D7
:1038680023F4004343EA053323F48043D1E9056593
:1038780024F4404446EA050C44EA8C144968446040
:10388800C26170BC01640362704700BF002C014034
:1038980000440140036A026A22F48032026230B4B2
:1038A8004468026D0D6822F4803222F070022A43C7
:1038B8008D6823F4003343EA05430F4DA8420FD027
:1038C80005F50065A8420BD005F54065A84207D06C
:1038D80005F58065A84203D005F58065A84204D1A6
:1038E8004D6924F4803444EA05244968446002653B
:1038F80030BC816403627047002C0140036A026A8D
:1039080022F48012026230B44468026D0D6822F01D
:10391800807222F4E04242EA05228D6823F4001303
:1039280043EA05530F4DA8420FD005F50065A8429C
:103938000BD005F54065A84207D005F58065A8427B
:1039480003D005F58065A84204D14D6924F480248C
:1039580044EA852449684460026530BCC164036256
:10396800704700BF002C0140704700BF704700BF80
:10397800704700BF704700BF704700BF036870B54D
:10398800DE681C69A207054601D5B10768D463073C
:1039980001D5700754D4210701D532073ED4E0067B
:1039A80001D5F10626D4E20701D5F3077AD414F439
:1039B800025F62D030067DD4600602D5710600F140
:1039C8008480A20602D5B30600F18780E00202D502
:1039D800F10200F18A80A20202D5B30200F18D80C3
:1039E800600202D5710200F19080220201D53302F3
:1039F8004FD470BD2B686FF010021A6108222A7725
:103A0800DB6913F4407F284640F09680FFF7AEFF4D
:103A18002846FFF7AFFF00232B77C4E72B686FF02A
:103A280008021A6104222A77DB699B07284674D1A9
:103A3800FFF79CFF2846FFF79DFF00232B77AEE793
:103A48002B686FF004021A6102222A779B6913F42B
:103A5800407F284664D0FFF78BFF00232B779AE737
:103A68006FF002021A61012202779B699A075DD002
:103A7800FFF77EFF00232B7789E7E2059CD5330605
:103A88009AD52B686FF480721A61284600F08AFA7A
:103A980092E72B686FF4000228461A61BDE870406F
:103AA80000F088BA2B686FF001021A612846FFF708
:103AB8005BFF7CE72B686FF402521A61284600F01E
:103AC8006FFAE1057FF578AFDBE72B686FF040020E
:103AD8001A612846FFF750FF73E72B686FF0200242
:103AE8001A61284600F05AFA70E72B686FF48012C2
:103AF8001A61284600F058FA6DE72B686FF4001237
:103B08001A61284600F052FA6AE72B686FF48002BF
:103B18001A61284600F04CFA67E7FFF729FF8CE79F
:103B2800FFF724FF2846FFF725FF96E7FFF71EFF5C
:103B38002846FFF71FFF9DE7FFF71AFF6BE700BF57
:103B48002F4A0368904210B423D0B0F1804F3FD081
:103B5800A2F5943290423BD002F58062904237D071
:103B680002F59632904214D0264A904242D002F58D
:103B7800806290423ED002F5806290423AD00A6854
:103B88008C68496923F080030B430360C462826236
:103B980012E04C68CA6823F07003234323F440738F
:103BA80013434A6923F08003134303608B68C3629D
:103BB8000B6883620B690363012343610369DB07B5
:103BC80003D5036923F0010303615DF8044B7047D3
:103BD8004A68CC6823F07003134323F440734A699E
:103BE800234323F080038C6813430A680360C4628C
:103BF8008262E1E7CC684A6923F440732343D1E742
:103C0800002C01400040014070B310B590F83D30E1
:103C1800044603F0FF0213B32146022384F83D3023
:103C280051F8040BFFF78CFF012384F8483084F81F
:103C38003E3084F83F3084F8403084F8413084F8CE
:103C4800423084F8433084F8443084F8453084F8AE
:103C5800463084F8473084F83D30002010BD80F8A5
:103C68003C20FDF739FCD7E70120704770B310B549
:103C780090F83D30044603F0FF0213B321460223B7
:103C880084F83D3051F8040BFFF75AFF012384F8FC
:103C9800483084F83E3084F83F3084F8403084F867
:103CA800413084F8423084F8433084F8443084F852
:103CB800453084F8463084F8473084F83D30002099
:103CC80010BD80F83C20FDF7E7FBD7E701207047DF
:103CD800036A026A22F01002026270B444688269C0
:103CE8000D6822F0807222F4E64242EA05228D68CD
:103CF80023F0200343EA0513144DA8420FD005F51D
:103D08000065A8420BD005F54065A8420ED0104DBD
:103D1800A8420BD005F58065A8420FD106E0CD6812
:103D280023F0800343EA051323F04003D1E9056536
:103D380024F4406446EA050C44EA8C04496844606B
:103D4800826170BC81630362704700BF002C014030
:103D58000044014038B590F83C30012B7CD0012359
:103D680004460D4680F83C30142A0CD8DFE802F0EF
:103D7800220B0B0B320B0B0B430B0B0B530B0B0BCD
:103D8800640B0B0B10000120002384F83C3038BD75
:103D98000068FFF7B3FD036D2A6943F40063036508
:103DA800036D23F480630365036D43EA022303650F
:103DB8000020E9E70068FFF7AFFC83692A6943F050
:103DC80008038361836923F00403836183691343D0
:103DD8008361EDE70068FFF77BFF83692A6943F495
:103DE80000638361836923F480638361836943EAA1
:103DF80002238361DCE70068FFF7CAFCC3692A690C
:103E080043F00803C361C36923F00403C361C369B2
:103E18001343C361CCE70068FFF7FAFCC3692A695A
:103E280043F40063C361C36923F48063C361C36956
:103E380043EA0223C361BBE70068FFF72BFD036D6C
:103E48002A6943F008030365036D23F0040303653F
:103E5800036D13430365ABE7022038BD90F83C308F
:103E6800012B46D070B40246234E0068022382F824
:103E78003D30B04243680D68846824D006F500667A
:103E8800B0422BD023F0007323F070032B43B0F122
:103E9800804F43600AD0194B984207D003F58063DE
:103EA800984203D003F59C33984204D18B6824F0E0
:103EB80080041C4384600020012382F83D3082F88E
:103EC8003C0070BC70474E6823F47003334323F002
:103ED800007323F070032B434360E7E74E6823F435
:103EE8007003334323F0007323F070031D434560D0
:103EF800DCE70220704700BF002C014000040040AE
:103F080090F83C30012B45D010B4D1E9024323F49A
:103F180040730246234348680C6823F480630343D4
:103F280023F400630869234323F480534C69034353
:103F380023F40053086B234323F480438C69034321
:103F480023F47023C86943EA044323F08053124CD6
:103F580003431068A0420BD004F50064A04207D0C8
:103F68000021436482F83C1008465DF8044B704712
:103F78008C6A23F4700343EA04530C6A23F08073B9
:103F880023434C6AC96A23F00073234323F0005388
:103F98000B43E5E702207047002C0140704700BF43
:103FA800704700BF704700BF704700BF704700BF31
:103FB800704700BF704700BF10B4026852E8003F66
:103FC80023F4907342E800310029F7D1144C02F130
:103FD800080353E8003F234002F1080C4CE8003185
:103FE8000029F4D1C36E012B08D000232022C0F889
:103FF8008C205DF8044B4367C366704752E8003F66
:1040080023F0100342E800310029EED052E8003FC7
:1040180023F0100342E800310029EFD1E5E700BFA3
:10402800FEFFFFEF70B504460368826800696169A6
:104038001D6802430A43E0698E49024329400A4346
:104048001A605A68E168656A22F440520A438A494C
:104058005A608B429968A26921F06E4121F430615F
:1040680000F0B080266A32430A439A60DA6A22F086
:104078000F022A43DA62814A934235D0804A93423A
:104088000DD0804A934255D07F4A934240D00120B8
:1040980000234FF00112C4E91D33A26670BD7B4BAB
:1040A800D3F8883003F00C030C2BF0D801A252F897
:1040B80023F000BFC141000897400008974000085E
:1040C800974000082F4100089740000897400008D3
:1040D800974000088341000897400008974000086F
:1040E8009740000851410008684BD3F8883003F026
:1040F8000303022B41D0032B26D0012B13D0B0F59C
:10410800004F00F0AC80FEF70BFCA0B3656A20E01E
:104118005E4BD3F8883003F0C003802B2DD000F21B
:104128008E80002B48D0B0F5004F00F09E80FEF73F
:10413800A9FAEAE7554BD3F8883003F03003202B6F
:104148001BD0EED9302BA2D1B0F5004F19D04FF4C7
:10415800004063684E4A32F81510B0FBF1F04FF694
:10416800EF7200EB5300B0FBF3F0A0F110039342A1
:104178008DD82368D86000208AE7B0F5004F4548FD
:10418800E7D16268424B33F81510B0FBF1F05308E1
:1041980003EB40034FF6EF71B3FBF2F3A3F1100208
:1041A8008A423FF674AF23F00F02216892B2C3F33C
:1041B80042031343CB60DEE7B0F5004F49D0FEF76A
:1041C8009DFBA2E711439960DA6A304922F00F0299
:1041D8002A43DA62D1F8883003F44063B3F5006FFC
:1041E80046D02FD8002B3DD0FEF74CFA0028C2D07D
:1041F800656A6668264B06EB460133F81520B0FB66
:10420800F2F399423FF643AFB3EB063F3FF63FAFB9
:1042180000231946FCF72CFA72080302090241EA46
:104228001061981841F1000132460023FCF720FA8A
:10423800194BA0F540729A423FF629AF99E7C02B77
:1042480082D024E7B3F5406F7FF421AF4FF40040EC
:10425800CFE7FEF753FB00288DD0656A91E7FEF79C
:104268005FFBF8E7FEF74AFBC0E7FEF70BFAF2E759
:104278000848BEE7F369FFCF0080004000380140DE
:104288000044004000480040004C0040001002403C
:10429800F84600080024F400FFFC0F00836A1A07A0
:1042A80010B406D50168846B4A6822F400422243A0
:1042B8004A60DC0706D50168C46A4A6822F40032FD
:1042C80022434A60990706D50168046B4A6822F4BC
:1042D800803222434A605A0706D50168446B4A680F
:1042E80022F4802222434A60DC0606D50168C46BAA
:1042F8008A6822F4805222438A60990606D50168AA
:10430800046C8A6822F4005222438A605A0609D54E
:104318000168446C4A6822F480122243B4F5801F75
:104328004A600BD01B0606D50268C16C536823F49B
:1043380000230B4353605DF8044B70474A68846C54
:1043480022F4C00222434A60ECE700BF2DE9F8439B
:10435800089F0C460168064615469846CA6934EA1D
:1043680002020CBF01220022AA4209D1781C0BD1FB
:10437800CB6934EA03030CBF01230023AB42F7D017
:1043880000231846BDE8F883FDF71EFFA0EB0800E0
:10439800B8421AD8CFB131680B685A07DED5802CDD
:1043A800DCD0402CDAD0CB6913F008090FD1CA69E8
:1043B8001305D3D54FF400620A623046FFF7FCFDBF
:1043C8002022C6F8902086F884900323D9E7082491
:1043D8000C623046FFF7F0FD00220123C6F890403A
:1043E80086F88420CDE700BF70B50446002682B069
:1043F800C0F89060FDF7E8FE23681A6812070546C2
:1044080010D41B685B0727D400232022C4F8882017
:104418001846C4F88C20E3662367002384F88430A8
:1044280002B070BD6FF07E430093324603464FF4EE
:1044380000112046FFF78AFF23680028E1D053E8DF
:10444800002F22F0800243E800210029F7D1202321
:10445800C4F888300320E0E76FF07E430093002221
:104468002B464FF480012046FFF770FF0028CBD081
:10447800236853E8002F22F4907243E800210029B2
:10448800F7D103F1080252E8002F22F0010203F1EC
:10449800080040E800210029F3D12023C4F88C301B
:1044A800D8E700BF80B3D0F8883010B5044633B3DE
:1044B8002268A16A2423C4F88830136823F0010312
:1044C8001360C1B92046FFF7ADFD012811D023685C
:1044D8005A6822F490425A609A6822F02A029A6036
:1044E8001A6842F0010220461A60BDE81040FFF742
:1044F8007BBF012010BD2046FFF7D0FEE2E780F821
:104508008430FDF705F9D3E70120704703689968FF
:104518009B6830B44FEA537C0A4D0B4C15F80C20BD
:10452800C1F34261D2006B5C14F80C50615CB2FBC1
:10453800F5F2DB0030BCB3FBF1F3A0F86A20A0F879
:1045480068307047184700081047000890F8843012
:10455800012B17D00268242310B4C0F888301168E2
:104568001468002324F0010421F00051146043660C
:10457800116080F884302022C0F888205DF8044B50
:10458800184670470220704790F88430012B1FD0DE
:1045980070B524230568C0F888302E682B6823F08E
:1045A80001032B60AB6823F060431943436EA96095
:1045B80004464BB1FFF7AAFF00202E60202384F8A1
:1045C8008400C4F8883070BD4FF001138366F3E7A8
:1045D8000220704790F88430012B1FD070B5242337
:1045E8000568C0F888302E682B6823F001032B601B
:1045F800AB6823F060631943436EA96004464BB16E
:10460800FFF784FF00202E60202384F88400C4F87C
:10461800883070BD4FF001138366F3E702207047BE
:10462800034AD2F8883043F47003C2F888307047E0
:1046380000ED00E00C490D4A0B6810B50C4C121B3C
:104648002BB11844904207D80860184610BD094B92
:104658000B6018449042F7D9FBF778FE0C230360EF
:104668004FF0FF33184610BD480700200080002097
:1046780000400000500700200D488546FFF7D0FF96
:104688000C480D490D4A002302E0D458C4500433A5
:10469800C4188C42F9D30A4A0A4C002301E013607B
:1046A8000432A242FBD3FBF7D7FDFCF7ADF9FEE7D6
:1046B8000080002000000020600000204C47000817
:1046C800600000204C070020FEE70B460146184614
:1046D800FBF742BEF8B500BFF8BC08BC9E46704761
:0C46E800F8B500BFF8BC08BC9E46704747
:1046F4007C000020010002000400060008000A00FB
:104704000C00100020004000800000010804020496
:10471400080101010101010307010000000000007C
:104724000102030400000000000000000102030471
:044734000607080963
:0847380070BFFF7F01000000CB
:08474000410200087D09000898
:04474800190200084A
:10474C000000000008000020000000008401002090
:10475C00EC010020540200200000000000000000CA
:10476C00000000000000000000000000000000003D
:10477C00000000000000000000000000000000002D
:10478C00000000000000000000000000000000001D
:10479C000000000001000000100000000024F400E4
:040000050800468128
:00000001FF
